{
  "contractName": "Ginko",
  "abi": [
    {
      "inputs": [],
      "stateMutability": "nonpayable",
      "type": "constructor"
    },
    {
      "inputs": [],
      "name": "getName",
      "outputs": [
        {
          "internalType": "string",
          "name": "",
          "type": "string"
        }
      ],
      "stateMutability": "view",
      "type": "function",
      "constant": true
    },
    {
      "inputs": [],
      "name": "getRewardsFund",
      "outputs": [
        {
          "internalType": "uint256",
          "name": "",
          "type": "uint256"
        }
      ],
      "stateMutability": "view",
      "type": "function",
      "constant": true
    },
    {
      "inputs": [],
      "name": "getTotalStakingDeposits",
      "outputs": [
        {
          "internalType": "uint256",
          "name": "",
          "type": "uint256"
        }
      ],
      "stateMutability": "view",
      "type": "function",
      "constant": true
    },
    {
      "inputs": [],
      "name": "getDepositFee",
      "outputs": [
        {
          "internalType": "uint256",
          "name": "",
          "type": "uint256"
        }
      ],
      "stateMutability": "view",
      "type": "function",
      "constant": true
    },
    {
      "inputs": [],
      "name": "getHarvestCooldownBlocks",
      "outputs": [
        {
          "internalType": "uint256",
          "name": "",
          "type": "uint256"
        }
      ],
      "stateMutability": "view",
      "type": "function",
      "constant": true
    },
    {
      "inputs": [],
      "name": "getStakingBlockRange",
      "outputs": [
        {
          "internalType": "uint256",
          "name": "",
          "type": "uint256"
        }
      ],
      "stateMutability": "view",
      "type": "function",
      "constant": true
    },
    {
      "inputs": [
        {
          "internalType": "uint256",
          "name": "amount",
          "type": "uint256"
        }
      ],
      "name": "deposit",
      "outputs": [],
      "stateMutability": "nonpayable",
      "type": "function"
    },
    {
      "inputs": [],
      "name": "withdraw",
      "outputs": [],
      "stateMutability": "nonpayable",
      "type": "function"
    },
    {
      "inputs": [],
      "name": "emergencyWithdraw",
      "outputs": [],
      "stateMutability": "nonpayable",
      "type": "function"
    },
    {
      "inputs": [],
      "name": "computeUserReward",
      "outputs": [
        {
          "internalType": "uint256",
          "name": "",
          "type": "uint256"
        }
      ],
      "stateMutability": "view",
      "type": "function",
      "constant": true
    },
    {
      "inputs": [],
      "name": "harvest",
      "outputs": [],
      "stateMutability": "nonpayable",
      "type": "function"
    },
    {
      "inputs": [],
      "name": "getStakingDeposit",
      "outputs": [
        {
          "internalType": "uint256",
          "name": "",
          "type": "uint256"
        }
      ],
      "stateMutability": "view",
      "type": "function",
      "constant": true
    },
    {
      "inputs": [],
      "name": "getStakingBlock",
      "outputs": [
        {
          "internalType": "uint256",
          "name": "",
          "type": "uint256"
        }
      ],
      "stateMutability": "view",
      "type": "function",
      "constant": true
    },
    {
      "inputs": [],
      "name": "computeBlocksStaking",
      "outputs": [
        {
          "internalType": "uint256",
          "name": "",
          "type": "uint256"
        }
      ],
      "stateMutability": "view",
      "type": "function",
      "constant": true
    }
  ],
  "bytecode": "0x60c0604052600660808190526547696e6bc58d60d01b60a0908152620000299160009190620002ff565b50610e10600155600a600255600160035560216004556201518060055562278d00600655670de0b6b3a764000060075561fd20600855612710600754620000719190620003fd565b600955600d80546001600160a01b031990811673827a19692b8bcea675a8bb5791048b2e2e616f1617909155600e80548216734cdf39285d7ca8eb3f090fda0c069ba5f4145b37179055600f80548216736c021ae822bea943b2e66552bde1d2696a53fbb7179055601080548216738d11ec38a3eb5e956b052f67da8bdc9bef8abf3e1790556011805482167321be370d5312f44cb42ce377bc9b8a0cef1a4c8317905560128054821673f491e7b69e4244ad4002bc14e878a34207e38c2917905560138054821673c99a8c938effe3725952ba083f624c364ed717fc17905560148054909116738764de60236c5843d9faeb1b638fbce962773b671790553480156200017d57600080fd5b50600d54601580546001600160a01b03199081166001600160a01b0393841617909155600e546016805483169184169182179055600f546017805484169185169190911790556010546018805484169185169182179055601254601980548516918616919091179055601354601a80548516918616919091179055601454601b805490941690851617909255604080516060810182529283526011549093166020830152918101919091526200023890601c9060036200038e565b5060408051606081018252600f546001600160a01b03908116825260115481166020830152600d5416918101919091526200027890601d9060036200038e565b5060408051606081018252600f546001600160a01b039081168252601154811660208301526010541691810191909152620002b890601e9060036200038e565b5060408051606081018252600f546001600160a01b03908116825260115481166020830152600e541691810191909152620002f890601f9060036200038e565b506200045b565b8280546200030d906200041e565b90600052602060002090601f0160209004810192826200033157600085556200037c565b82601f106200034c57805160ff19168380011785556200037c565b828001600101855582156200037c579182015b828111156200037c5782518255916020019190600101906200035f565b506200038a929150620003e6565b5090565b8280548282559060005260206000209081019282156200037c579160200282015b828111156200037c57825182546001600160a01b0319166001600160a01b03909116178255602090920191600190910190620003af565b5b808211156200038a5760008155600101620003e7565b6000826200041957634e487b7160e01b81526012600452602481fd5b500490565b6002810460018216806200043357607f821691505b602082108114156200045557634e487b7160e01b600052602260045260246000fd5b50919050565b6118c2806200046b6000396000f3fe608060405234801561001057600080fd5b50600436106100ea5760003560e01c8063b6b55f251161008c578063c1f45a9911610066578063c1f45a991461016f578063d9a9cb6f14610177578063db2e21bc1461017f578063f9209fae14610187576100ea565b8063b6b55f251461014c578063b841ac331461015f578063c1b4305614610167576100ea565b806340737cdd116100c857806340737cdd1461012c5780634641257d146101345780634a033c641461013c5780634fbfd1b614610144576100ea565b80630de705b5146100ef57806317d7de7c1461010d5780633ccfd60b14610122575b600080fd5b6100f761018f565b604051610104919061173e565b60405180910390f35b610115610195565b60405161010491906115b6565b61012a610227565b005b6100f7610250565b61012a6102e4565b6100f76103f7565b6100f7610431565b61012a61015a366004611535565b610530565b6100f7610971565b6100f761099c565b6100f76109cd565b6100f76109d3565b61012a6109d9565b6100f7610ab7565b60025490565b6060600080546101a490611825565b80601f01602080910402602001604051908101604052809291908181526020018280546101d090611825565b801561021d5780601f106101f25761010080835404028352916020019161021d565b820191906000526020600020905b81548152906001019060200180831161020057829003601f168201915b5050505050905090565b60006102316103f7565b9050600554811115610245576102456102e4565b61024d6109d9565b50565b600b546018546040516370a0823160e01b8152600092916001600160a01b0316906370a0823190610285903090600401611565565b60206040518083038186803b15801561029d57600080fd5b505afa1580156102b1573d6000803e3d6000fd5b505050506040513d601f19601f820116820180604052508101906102d5919061154d565b6102df919061180e565b905090565b336000908152600c60205260409020546103195760405162461bcd60e51b815260040161031090611609565b60405180910390fd5b60006103236103f7565b905060055481116103465760405162461bcd60e51b8152600401610310906116fb565b61034e610abd565b6000610358610431565b336000818152600c60205260409081902043600190910155601854905163a9059cbb60e01b81529293506001600160a01b03169163a9059cbb916103a091859060040161159d565b602060405180830381600087803b1580156103ba57600080fd5b505af11580156103ce573d6000803e3d6000fd5b505050506040513d601f19601f820116820180604052508101906103f2919061150e565b505050565b336000908152600c60205260408120548190156102df57336000908152600c602052604090206001015461042b904361180e565b92915050565b336000908152600c602052604081205461045d5760405162461bcd60e51b815260040161031090611609565b6000610467610250565b90506000806104746103f7565b90508015610529576007546006548210156104a65760065460075461049990846117ef565b6104a391906117cf565b90505b600754600b54336000908152600c602052604090205410156104ef57600b54600754336000908152600c60205260409020546104e291906117ef565b6104ec91906117cf565b90505b6007546000906104ff83856117ef565b61050991906117cf565b60075490915061051987836117ef565b61052391906117cf565b94505050505b5091505090565b60648110156105515760405162461bcd60e51b815260040161031090611640565b610559610abd565b6018546040516323b872dd60e01b81526001600160a01b03909116906323b872dd9061058d90339030908690600401611579565b602060405180830381600087803b1580156105a757600080fd5b505af11580156105bb573d6000803e3d6000fd5b505050506040513d601f19601f820116820180604052508101906105df919061150e565b5060006064600254836105f291906117ef565b6105fc91906117cf565b9050600061060a828461180e565b336000908152600c602052604081208054929350839290919061062e9084906117b7565b9091555050336000908152600c6020526040812043600190910155600b805483929061065b9084906117b7565b925050819055506000601c8054806020026020016040519081016040528092919081815260200182805480156106ba57602002820191906000526020600020905b81546001600160a01b0316815260019091019060200180831161069c575b505060185460125460405163095ea7b360e01b81529596506001600160a01b039182169563095ea7b395506106f8945091169150879060040161159d565b602060405180830381600087803b15801561071257600080fd5b505af1158015610726573d6000803e3d6000fd5b505050506040513d601f19601f8201168201806040525081019061074a919061150e565b506019546001546001600160a01b03909116906338ed17399085906000908590309061077690426117b7565b6040518663ffffffff1660e01b8152600401610796959493929190611747565b600060405180830381600087803b1580156107b057600080fd5b505af11580156107c4573d6000803e3d6000fd5b505050506040513d6000823e601f3d908101601f191682016040526107ec9190810190611454565b506016546040516370a0823160e01b81526000916001600160a01b0316906370a082319061081e903090600401611565565b60206040518083038186803b15801561083657600080fd5b505afa15801561084a573d6000803e3d6000fd5b505050506040513d601f19601f8201168201806040525081019061086e919061154d565b905060095481111561096a5760165460145460405163095ea7b360e01b81526001600160a01b039283169263095ea7b3926108b092911690859060040161159d565b602060405180830381600087803b1580156108ca57600080fd5b505af11580156108de573d6000803e3d6000fd5b505050506040513d601f19601f82011682018060405250810190610902919061150e565b50601b5460405163534a7e1d60e11b81526001600160a01b039091169063a694fc3a9061093390849060040161173e565b600060405180830381600087803b15801561094d57600080fd5b505af1158015610961573d6000803e3d6000fd5b505043600a5550505b5050505050565b336000908152600c602090815260409182902082518084019093528054835260010154910181905290565b336000908152600c602090815260409182902082518084019093528054808452600190910154929091019190915290565b60055490565b60065490565b336000908152600c602052604090205480610a065760405162461bcd60e51b815260040161031090611682565b336000818152600c602052604080822091909155601854905163a9059cbb60e01b81526001600160a01b039091169163a9059cbb91610a4a9190859060040161159d565b602060405180830381600087803b158015610a6457600080fd5b505af1158015610a78573d6000803e3d6000fd5b505050506040513d601f19601f82011682018060405250810190610a9c919061150e565b5080600b6000828254610aaf919061180e565b909155505050565b600b5490565b6000600a5443610acd919061180e565b905060085481111561024d576000601e805480602002602001604051908101604052809291908181526020018280548015610b3157602002820191906000526020600020905b81546001600160a01b03168152600190910190602001808311610b13575b505050505090506000601f805480602002602001604051908101604052809291908181526020018280548015610b9057602002820191906000526020600020905b81546001600160a01b03168152600190910190602001808311610b72575b50505050509050601b60009054906101000a90046001600160a01b03166001600160a01b031663b88a802f6040518163ffffffff1660e01b8152600401600060405180830381600087803b158015610be757600080fd5b505af1158015610bfb573d6000803e3d6000fd5b50506017546040516370a0823160e01b8152600093506001600160a01b0390911691506370a0823190610c32903090600401611565565b60206040518083038186803b158015610c4a57600080fd5b505afa158015610c5e573d6000803e3d6000fd5b505050506040513d601f19601f82011682018060405250810190610c82919061154d565b90506000606460035483610c9691906117ef565b610ca091906117cf565b90506000606460045484610cb491906117ef565b610cbe91906117cf565b90508115610ccf57610ccf82611130565b8015610f705760175460125460405163095ea7b360e01b81526001600160a01b039283169263095ea7b392610d0b92911690859060040161159d565b602060405180830381600087803b158015610d2557600080fd5b505af1158015610d39573d6000803e3d6000fd5b505050506040513d601f19601f82011682018060405250810190610d5d919061150e565b506019546001546001600160a01b03909116906338ed173990839060009088903090610d8990426117b7565b6040518663ffffffff1660e01b8152600401610da9959493929190611747565b600060405180830381600087803b158015610dc357600080fd5b505af1158015610dd7573d6000803e3d6000fd5b505050506040513d6000823e601f3d908101601f19168201604052610dff9190810190611454565b506016546040516370a0823160e01b81526000916001600160a01b0316906370a0823190610e31903090600401611565565b60206040518083038186803b158015610e4957600080fd5b505afa158015610e5d573d6000803e3d6000fd5b505050506040513d601f19601f82011682018060405250810190610e81919061154d565b60165460145460405163095ea7b360e01b81529293506001600160a01b039182169263095ea7b392610eb9921690859060040161159d565b602060405180830381600087803b158015610ed357600080fd5b505af1158015610ee7573d6000803e3d6000fd5b505050506040513d601f19601f82011682018060405250810190610f0b919061150e565b50601b5460405163534a7e1d60e11b81526001600160a01b039091169063a694fc3a90610f3c90849060040161173e565b600060405180830381600087803b158015610f5657600080fd5b505af1158015610f6a573d6000803e3d6000fd5b50505050505b6017546040516370a0823160e01b81526001600160a01b03909116906370a0823190610fa0903090600401611565565b60206040518083038186803b158015610fb857600080fd5b505afa158015610fcc573d6000803e3d6000fd5b505050506040513d601f19601f82011682018060405250810190610ff0919061154d565b925082156111245760175460125460405163095ea7b360e01b81526001600160a01b039283169263095ea7b39261102e92911690879060040161159d565b602060405180830381600087803b15801561104857600080fd5b505af115801561105c573d6000803e3d6000fd5b505050506040513d601f19601f82011682018060405250810190611080919061150e565b506019546001546001600160a01b03909116906338ed1739908590600090899030906110ac90426117b7565b6040518663ffffffff1660e01b81526004016110cc959493929190611747565b600060405180830381600087803b1580156110e657600080fd5b505af11580156110fa573d6000803e3d6000fd5b505050506040513d6000823e601f3d908101601f191682016040526111229190810190611454565b505b505043600a5550505050565b600081116111505760405162461bcd60e51b8152600401610310906116c4565b6000601d8054806020026020016040519081016040528092919081815260200182805480156111a857602002820191906000526020600020905b81546001600160a01b0316815260019091019060200180831161118a575b505060175460125460405163095ea7b360e01b81529596506001600160a01b039182169563095ea7b395506111e6945091169150869060040161159d565b602060405180830381600087803b15801561120057600080fd5b505af1158015611214573d6000803e3d6000fd5b505050506040513d601f19601f82011682018060405250810190611238919061150e565b506019546001546001600160a01b03909116906338ed17399084906000908590309061126490426117b7565b6040518663ffffffff1660e01b8152600401611284959493929190611747565b600060405180830381600087803b15801561129e57600080fd5b505af11580156112b2573d6000803e3d6000fd5b505050506040513d6000823e601f3d908101601f191682016040526112da9190810190611454565b506015546040516370a0823160e01b81526000916001600160a01b0316906370a082319061130c903090600401611565565b60206040518083038186803b15801561132457600080fd5b505afa158015611338573d6000803e3d6000fd5b505050506040513d601f19601f8201168201806040525081019061135c919061154d565b905080156103f25760155460135460405163095ea7b360e01b81526001600160a01b039283169263095ea7b39261139a92911690859060040161159d565b602060405180830381600087803b1580156113b457600080fd5b505af11580156113c8573d6000803e3d6000fd5b505050506040513d601f19601f820116820180604052508101906113ec919061150e565b50601a5460405163f14faf6f60e01b81526001600160a01b039091169063f14faf6f9061141d90849060040161173e565b600060405180830381600087803b15801561143757600080fd5b505af115801561144b573d6000803e3d6000fd5b50505050505050565b60006020808385031215611466578182fd5b825167ffffffffffffffff8082111561147d578384fd5b818501915085601f830112611490578384fd5b8151818111156114a2576114a2611876565b838102604051858282010181811085821117156114c1576114c1611876565b604052828152858101935084860182860187018a10156114df578788fd5b8795505b838610156115015780518552600195909501949386019386016114e3565b5098975050505050505050565b60006020828403121561151f578081fd5b8151801515811461152e578182fd5b9392505050565b600060208284031215611546578081fd5b5035919050565b60006020828403121561155e578081fd5b5051919050565b6001600160a01b0391909116815260200190565b6001600160a01b039384168152919092166020820152604081019190915260600190565b6001600160a01b03929092168252602082015260400190565b6000602080835283518082850152825b818110156115e2578581018301518582016040015282016115c6565b818111156115f35783604083870101525b50601f01601f1916929092016040019392505050565b6020808252601b908201527f47696e6b6f3a207374616b696e67206465706f73697420697320300000000000604082015260600190565b60208082526022908201527f47696e6b6f3a206d696e696d756d206465706f73697420616d6f756e743a2031604082015261030360f41b606082015260800190565b60208082526022908201527f47696e6b6f3a20776974686472617720616d6f756e742063616e6e6f74206265604082015261020360f41b606082015260800190565b6020808252601d908201527f47696e6b6f3a20456d7020616d6f756e742063616e6e6f742062652030000000604082015260600190565b60208082526023908201527f47696e6b6f3a206861727665737420636f6f6c646f776e20696e2070726f677260408201526265737360e81b606082015260800190565b90815260200190565b600060a082018783526020878185015260a0604085015281875180845260c0860191508289019350845b818110156117965784516001600160a01b031683529383019391830191600101611771565b50506001600160a01b03969096166060850152505050608001529392505050565b600082198211156117ca576117ca611860565b500190565b6000826117ea57634e487b7160e01b81526012600452602481fd5b500490565b600081600019048311821515161561180957611809611860565b500290565b60008282101561182057611820611860565b500390565b60028104600182168061183957607f821691505b6020821081141561185a57634e487b7160e01b600052602260045260246000fd5b50919050565b634e487b7160e01b600052601160045260246000fd5b634e487b7160e01b600052604160045260246000fdfea2646970667358221220682416b7da93b6afe4095a3e0517fa8f508de04fd500ceb841da8ebfa38d15c264736f6c63430008000033",
  "immutableReferences": {},
  "source": "//SPDX-License-Identifier: GPL-3.0+\n\npragma solidity 0.8.0;\n\ncontract GoToken\n{\n    function approve(address, uint256) external returns (bool) {}\n    function balanceOf(address) external view returns (uint256) {}\n}\n\ncontract EshareToken\n{\n    function approve(address, uint256) external returns (bool) {}\n    function balanceOf(address) external view returns (uint256) {}\n}\n\ncontract EmpToken\n{\n    function approve(address, uint256) external returns (bool) {}\n    function balanceOf(address) external view returns (uint256) {}\n}\n\ncontract BusdToken\n{\n    function approve(address, uint256) external returns (bool) {}\n    function balanceOf(address) external view returns (uint256) {}\n    function transfer(address, uint256) external returns (bool) {}\n    function transferFrom(address, address, uint256) external returns (bool) {}\n}\n\ncontract PancakeSwapRouter\n{\n    function swapExactTokensForTokens(\n                 uint,\n                 uint,\n                 address[] calldata,\n                 address,\n                 uint\n             ) external virtual returns (uint[] memory) {}\n}\n\ncontract GoFarm\n{\n    function donate(uint256) external {}\n}\n\ncontract Boardroom\n{\n    function stake(uint256) public {}\n \tfunction claimReward() public {}\n}\n\ncontract Ginko\n{\n    struct UserData \n    { \n        uint256 stakingDeposit;\n        uint256 stakingBlock;\n    }\n    \n    string  private _name = \"\\x47\\x69\\x6e\\x6b\\xc5\\x8d\";\n    uint256 private _swapWaitingSeconds = 3600;\n    uint256 private _depositFee = 10; //Deposit fee: 10%\n    uint256 private _performanceFee = 1; //Performance fee: 1%\n    uint256 private _autoCompoundFee = 33; //Auto-compound fee: 33%\n    uint256 private _harvestCooldownBlocks = 86400;\n    uint256 private _stakingBlockRange = 2592000;\n    uint256 private _decimalFixMultiplier = 1000000000000000000;\n    uint256 private _updateCooldownBlocks = 64800;\n    uint256 private _minEshareAmount = _decimalFixMultiplier / 10000;\n\n    uint256 private _lastUpdate;\n    uint256 private _totalStakingDeposits;\n    \n    mapping(address => UserData) private _userData;\n    \n    address private _goTokenAddress = 0x827a19692B8BcEa675a8Bb5791048b2E2E616F16;\n    address private _eshareTokenAddress = 0x4cdF39285D7Ca8eB3f090fDA0C069ba5F4145B37; //TSHARE\n    address private _empTokenAddress = 0x6c021Ae822BEa943b2E66552bDe1D2696a53fbB7; //TOMB\n    address private _busdTokenAddress = 0x8D11eC38a3EB5E956B052f67Da8Bdc9bef8Abf3E; //DAI\n    address private _bnbTokenAddress = 0x21be370D5312f44cB42ce377BC9b8a0cEF1A4C83; //FTM\n    address private _pancakeSwapRouterAddress = 0xF491e7B69E4244ad4002BC14e878a34207E38c29; //SpookySwap\n    address private _goFarmAddress = 0xc99a8C938efFE3725952Ba083F624C364ed717FC;\n    address private _boardroomAddress = 0x8764DE60236C5843D9faEB1B638fbCE962773B67;\n        \n    GoToken           private _goToken;\n    EshareToken       private _eshareToken;\n    EmpToken          private _empToken;\n    BusdToken         private _busdToken;\n    PancakeSwapRouter private _pancakeSwapRouter;\n    GoFarm            private _goFarm;\n    Boardroom         private _boardroom;\n    \n    address[] private _busdEsharePair;\n    address[] private _empGoPair;\n    address[] private _empBusdPair;\n    address[] private _empEsharePair;    \n    \n    constructor()\n    {\n        //Initialize contracts\n        _goToken           = GoToken(_goTokenAddress);\n        _eshareToken       = EshareToken(_eshareTokenAddress);\n        _empToken          = EmpToken(_empTokenAddress);\n        _busdToken         = BusdToken(_busdTokenAddress);\n        _pancakeSwapRouter = PancakeSwapRouter(_pancakeSwapRouterAddress);\n        _goFarm            = GoFarm(_goFarmAddress);\n        _boardroom         = Boardroom(_boardroomAddress);\n        \n        //Initialize trading pairs\n        _busdEsharePair = [_busdTokenAddress, _bnbTokenAddress, _eshareTokenAddress];\n        _empGoPair      = [_empTokenAddress,  _bnbTokenAddress, _goTokenAddress];\n        _empBusdPair    = [_empTokenAddress,  _bnbTokenAddress, _busdTokenAddress];\n        _empEsharePair  = [_empTokenAddress,  _bnbTokenAddress, _eshareTokenAddress];        \n    }\n    \n    function getName() external view returns (string memory)\n    {\n        return _name;\n    }\n    \n    function getRewardsFund() public view returns (uint256)\n    {\n        return _busdToken.balanceOf(address(this)) - _totalStakingDeposits;\n    }\n    \n    function getTotalStakingDeposits() external view returns (uint256)\n    {\n        return _totalStakingDeposits;\n    }\n    \n    function getDepositFee() external view returns (uint256)\n    {\n        return _depositFee;\n    }\n    \n    function getHarvestCooldownBlocks() external view returns (uint256)\n    {\n        return _harvestCooldownBlocks;\n    }\n    \n    function getStakingBlockRange() external view returns (uint256)\n    {\n        return _stakingBlockRange;\n    } \n    \n    function buyGoToken(uint256 empAmount) private\n    {\n        require(empAmount > 0, \"Ginko: Emp amount cannot be 0\");\n    \n        address[] memory empGoPairMemory = _empGoPair;\n        \n        //Swap Emp for G\n        _empToken.approve(_pancakeSwapRouterAddress, empAmount);\n        _pancakeSwapRouter.swapExactTokensForTokens(empAmount, 0, empGoPairMemory, address(this), block.timestamp + _swapWaitingSeconds);\n        \n        //Donate to G farm\n        uint256 goAmount = _goToken.balanceOf(address(this));\n        \n        if (goAmount > 0)\n        {\n            _goToken.approve(_goFarmAddress, goAmount);\n            _goFarm.donate(goAmount);\n        }\n    }\n    \n    function updateRewardsFund() private\n    {\n        uint256 elapsedBlocks = block.number - _lastUpdate;\n    \n        if (elapsedBlocks > _updateCooldownBlocks)\n        {\n            address[] memory empBusdPairMemory = _empBusdPair;\n\t\t\taddress[] memory empEsharePairMemory = _empEsharePair;            \n                \n            //Harvest pending Emp\n            _boardroom.claimReward();\n            \n            uint256 empAmount = _empToken.balanceOf(address(this));\n            \n            uint256 performanceFeeAmount = empAmount * _performanceFee / 100;\n            uint256 autoCompoundFeeAmount = empAmount * _autoCompoundFee / 100;\n            \n            //Buy G and donate it to G farm\n            if (performanceFeeAmount > 0)\n                buyGoToken(performanceFeeAmount);\n                \n            //Auto-compound\n            if (autoCompoundFeeAmount > 0)\n            {\n            \t//Swap Emp for Eshare\n                _empToken.approve(_pancakeSwapRouterAddress, autoCompoundFeeAmount);\n                _pancakeSwapRouter.swapExactTokensForTokens(autoCompoundFeeAmount, 0, empEsharePairMemory, address(this), block.timestamp + _swapWaitingSeconds);\n            \n               \tuint256 eshareAmount = _eshareToken.balanceOf(address(this));\n                \n                _eshareToken.approve(_boardroomAddress, eshareAmount);\n                _boardroom.stake(eshareAmount);\n            }\n            \n            //Swap Emp for BUSD\n            empAmount = _empToken.balanceOf(address(this));\n            \n            if (empAmount > 0)\n            {\n                _empToken.approve(_pancakeSwapRouterAddress, empAmount);\n                _pancakeSwapRouter.swapExactTokensForTokens(empAmount, 0, empBusdPairMemory, address(this), block.timestamp + _swapWaitingSeconds);\n            }\n            \n            _lastUpdate = block.number;\n        }\n    }\n    \n    function deposit(uint256 amount) external \n    {\n        require(amount >= 100, \"Ginko: minimum deposit amount: 100\");\n        \n        //Update rewards fund\n        updateRewardsFund();\n        \n        _busdToken.transferFrom(msg.sender, address(this), amount);\n        \n        uint256 fee = amount * _depositFee / 100;\n        uint256 netAmount = amount - fee;\n        \n        //Update user data\n        _userData[msg.sender].stakingDeposit += netAmount;\n        _userData[msg.sender].stakingBlock = block.number;\n        \n        _totalStakingDeposits += netAmount;\n        \n        //Swap deposit fee for Eshare\n        address[] memory busdEsharePairMemory = _busdEsharePair;\n        \n        _busdToken.approve(_pancakeSwapRouterAddress, fee);\n        _pancakeSwapRouter.swapExactTokensForTokens(fee, 0, busdEsharePairMemory, address(this), block.timestamp + _swapWaitingSeconds);\n        \n        //Deposit Eshare on EMP Money Boardroom\n        uint256 eshareAmount = _eshareToken.balanceOf(address(this));\n            \n        if (eshareAmount > _minEshareAmount)\n        {\n            _eshareToken.approve(_boardroomAddress, eshareAmount);\n            _boardroom.stake(eshareAmount);\n            _lastUpdate = block.number;\n        }\n    }\n\n    function withdraw() external\n    {\n        uint256 blocksStaking = computeBlocksStaking();\n\n        if (blocksStaking > _harvestCooldownBlocks)\n            harvest();\n        \n        emergencyWithdraw();\n    }\n    \n    function emergencyWithdraw() public\n    {\n        uint256 stakingDeposit = _userData[msg.sender].stakingDeposit;\n        \n        require(stakingDeposit > 0, \"Ginko: withdraw amount cannot be 0\");\n        \n        _userData[msg.sender].stakingDeposit = 0;\n \n        _busdToken.transfer(msg.sender, stakingDeposit);\n        \n        _totalStakingDeposits -= stakingDeposit;\n    }\n\n    function computeUserReward() public view returns (uint256)\n    {\n        require(_userData[msg.sender].stakingDeposit > 0, \"Ginko: staking deposit is 0\");\n    \n        uint256 rewardsFund = getRewardsFund();\n        \n        uint256 userReward = 0;\n    \n        uint256 blocksStaking = computeBlocksStaking();\n        \n        if (blocksStaking > 0)\n\t    {\n\t        uint256 userBlockRatio = _decimalFixMultiplier;\n\t    \n\t        if (blocksStaking < _stakingBlockRange)\n\t            userBlockRatio = blocksStaking * _decimalFixMultiplier / _stakingBlockRange; \n\t\t    \n\t\t    uint256 userDepositRatio = _decimalFixMultiplier;\n\t\t    \n\t\t    if (_userData[msg.sender].stakingDeposit < _totalStakingDeposits)\n\t\t        userDepositRatio = _userData[msg.sender].stakingDeposit * _decimalFixMultiplier / _totalStakingDeposits;\n\t\t    \n\t\t    uint256 totalRatio = userBlockRatio * userDepositRatio / _decimalFixMultiplier;\n\t\t    \n\t\t    userReward = totalRatio * rewardsFund / _decimalFixMultiplier;\n\t\t}\n\t\t\n\t\treturn userReward;\n    }\n\n    function harvest() public \n    {\n        require(_userData[msg.sender].stakingDeposit > 0, \"Ginko: staking deposit is 0\");\n\n        uint256 blocksStaking = computeBlocksStaking();\n\n        require(blocksStaking > _harvestCooldownBlocks, \"Ginko: harvest cooldown in progress\");\n    \n        updateRewardsFund();\n        \n        uint256 userReward = computeUserReward();\n        \n        _userData[msg.sender].stakingBlock = block.number;\n\n        _busdToken.transfer(msg.sender, userReward);\n    }\n    \n    function getStakingDeposit() external view returns (uint256)\n    {\n        UserData memory userData = _userData[msg.sender];\n    \n        return (userData.stakingDeposit);\n    }\n    \n    function getStakingBlock() external view returns (uint256)\n    {\n        UserData memory userData = _userData[msg.sender];\n    \n        return (userData.stakingBlock);\n    }\n    \n    function computeBlocksStaking() public view returns (uint256)\n    {\n        uint256 blocksStaking = 0;\n        \n        if (_userData[msg.sender].stakingDeposit > 0)\n            blocksStaking = block.number - _userData[msg.sender].stakingBlock;\n        \n        return blocksStaking;\n    }\n}\n\n",
  "sourcePath": "/home/dummy/shared/GinkoFantom/contracts/Ginko.sol",
  "compiler": {
    "name": "solc",
    "version": "0.8.0+commit.c7dfd78e.Emscripten.clang"
  },
  "schemaVersion": "3.4.4",
  "updatedAt": "2022-02-23T12:50:33.684Z",
  "networkType": "ethereum",
  "devdoc": {
    "kind": "dev",
    "methods": {},
    "version": 1
  },
  "userdoc": {
    "kind": "user",
    "methods": {},
    "version": 1
  }
}