{
  "contractName": "Ginko",
  "abi": [
    {
      "inputs": [],
      "stateMutability": "nonpayable",
      "type": "constructor"
    },
    {
      "inputs": [],
      "name": "getName",
      "outputs": [
        {
          "internalType": "string",
          "name": "",
          "type": "string"
        }
      ],
      "stateMutability": "view",
      "type": "function",
      "constant": true
    },
    {
      "inputs": [],
      "name": "getRewardsFund",
      "outputs": [
        {
          "internalType": "uint256",
          "name": "",
          "type": "uint256"
        }
      ],
      "stateMutability": "view",
      "type": "function",
      "constant": true
    },
    {
      "inputs": [],
      "name": "getTotalStakingDeposits",
      "outputs": [
        {
          "internalType": "uint256",
          "name": "",
          "type": "uint256"
        }
      ],
      "stateMutability": "view",
      "type": "function",
      "constant": true
    },
    {
      "inputs": [],
      "name": "getDepositFee",
      "outputs": [
        {
          "internalType": "uint256",
          "name": "",
          "type": "uint256"
        }
      ],
      "stateMutability": "view",
      "type": "function",
      "constant": true
    },
    {
      "inputs": [],
      "name": "getHarvestCooldownBlocks",
      "outputs": [
        {
          "internalType": "uint256",
          "name": "",
          "type": "uint256"
        }
      ],
      "stateMutability": "view",
      "type": "function",
      "constant": true
    },
    {
      "inputs": [],
      "name": "getStakingBlockRange",
      "outputs": [
        {
          "internalType": "uint256",
          "name": "",
          "type": "uint256"
        }
      ],
      "stateMutability": "view",
      "type": "function",
      "constant": true
    },
    {
      "inputs": [
        {
          "internalType": "uint256",
          "name": "amount",
          "type": "uint256"
        }
      ],
      "name": "deposit",
      "outputs": [],
      "stateMutability": "nonpayable",
      "type": "function"
    },
    {
      "inputs": [],
      "name": "withdraw",
      "outputs": [],
      "stateMutability": "nonpayable",
      "type": "function"
    },
    {
      "inputs": [],
      "name": "emergencyWithdraw",
      "outputs": [],
      "stateMutability": "nonpayable",
      "type": "function"
    },
    {
      "inputs": [],
      "name": "computeUserReward",
      "outputs": [
        {
          "internalType": "uint256",
          "name": "",
          "type": "uint256"
        }
      ],
      "stateMutability": "view",
      "type": "function",
      "constant": true
    },
    {
      "inputs": [],
      "name": "harvest",
      "outputs": [],
      "stateMutability": "nonpayable",
      "type": "function"
    },
    {
      "inputs": [],
      "name": "getStakingDeposit",
      "outputs": [
        {
          "internalType": "uint256",
          "name": "",
          "type": "uint256"
        }
      ],
      "stateMutability": "view",
      "type": "function",
      "constant": true
    },
    {
      "inputs": [],
      "name": "getStakingBlock",
      "outputs": [
        {
          "internalType": "uint256",
          "name": "",
          "type": "uint256"
        }
      ],
      "stateMutability": "view",
      "type": "function",
      "constant": true
    },
    {
      "inputs": [],
      "name": "computeBlocksStaking",
      "outputs": [
        {
          "internalType": "uint256",
          "name": "",
          "type": "uint256"
        }
      ],
      "stateMutability": "view",
      "type": "function",
      "constant": true
    }
  ],
  "bytecode": "0x60c0604052600660808190526547696e6bc58d60d01b60a0908152620000299160009190620002ea565b50610e106001908155600a60025560035560216004556201518060055562278d00600655670de0b6b3a764000060075561fd20600855600c80546001600160a01b031990811673827a19692b8bcea675a8bb5791048b2e2e616f1617909155600d80548216734cdf39285d7ca8eb3f090fda0c069ba5f4145b37179055600e80548216736c021ae822bea943b2e66552bde1d2696a53fbb7179055600f80548216738d11ec38a3eb5e956b052f67da8bdc9bef8abf3e1790556010805482167321be370d5312f44cb42ce377bc9b8a0cef1a4c8317905560118054821673f491e7b69e4244ad4002bc14e878a34207e38c2917905560128054821673c99a8c938effe3725952ba083f624c364ed717fc17905560138054909116738764de60236c5843d9faeb1b638fbce962773b671790553480156200016857600080fd5b50600c54601480546001600160a01b03199081166001600160a01b0393841617909155600d546015805483169184169182179055600e54601680548416918516919091179055600f546017805484169185169182179055601154601880548516918616919091179055601254601980548516918616919091179055601354601a805490941690851617909255604080516060810182529283526010549093166020830152918101919091526200022390601b90600362000379565b5060408051606081018252600e546001600160a01b03908116825260105481166020830152600c5416918101919091526200026390601c90600362000379565b5060408051606081018252600e546001600160a01b03908116825260105481166020830152600f541691810191909152620002a390601d90600362000379565b5060408051606081018252600e546001600160a01b03908116825260105481166020830152600d541691810191909152620002e390601e90600362000379565b5062000425565b828054620002f890620003e8565b90600052602060002090601f0160209004810192826200031c576000855562000367565b82601f106200033757805160ff191683800117855562000367565b8280016001018555821562000367579182015b82811115620003675782518255916020019190600101906200034a565b5062000375929150620003d1565b5090565b82805482825590600052602060002090810192821562000367579160200282015b828111156200036757825182546001600160a01b0319166001600160a01b039091161782556020909201916001909101906200039a565b5b80821115620003755760008155600101620003d2565b600281046001821680620003fd57607f821691505b602082108114156200041f57634e487b7160e01b600052602260045260246000fd5b50919050565b6118ba80620004356000396000f3fe608060405234801561001057600080fd5b50600436106100ea5760003560e01c8063b6b55f251161008c578063c1f45a9911610066578063c1f45a991461016f578063d9a9cb6f14610177578063db2e21bc1461017f578063f9209fae14610187576100ea565b8063b6b55f251461014c578063b841ac331461015f578063c1b4305614610167576100ea565b806340737cdd116100c857806340737cdd1461012c5780634641257d146101345780634a033c641461013c5780634fbfd1b614610144576100ea565b80630de705b5146100ef57806317d7de7c1461010d5780633ccfd60b14610122575b600080fd5b6100f761018f565b6040516101049190611736565b60405180910390f35b610115610195565b60405161010491906115ae565b61012a610227565b005b6100f7610250565b61012a6102e4565b6100f76103f7565b6100f7610431565b61012a61015a36600461152d565b610530565b6100f7610969565b6100f7610994565b6100f76109c5565b6100f76109cb565b61012a6109d1565b6100f7610aaf565b60025490565b6060600080546101a49061181d565b80601f01602080910402602001604051908101604052809291908181526020018280546101d09061181d565b801561021d5780601f106101f25761010080835404028352916020019161021d565b820191906000526020600020905b81548152906001019060200180831161020057829003601f168201915b5050505050905090565b60006102316103f7565b9050600554811115610245576102456102e4565b61024d6109d1565b50565b600a546017546040516370a0823160e01b8152600092916001600160a01b0316906370a082319061028590309060040161155d565b60206040518083038186803b15801561029d57600080fd5b505afa1580156102b1573d6000803e3d6000fd5b505050506040513d601f19601f820116820180604052508101906102d59190611545565b6102df9190611806565b905090565b336000908152600b60205260409020546103195760405162461bcd60e51b815260040161031090611601565b60405180910390fd5b60006103236103f7565b905060055481116103465760405162461bcd60e51b8152600401610310906116f3565b61034e610ab5565b6000610358610431565b336000818152600b60205260409081902043600190910155601754905163a9059cbb60e01b81529293506001600160a01b03169163a9059cbb916103a0918590600401611595565b602060405180830381600087803b1580156103ba57600080fd5b505af11580156103ce573d6000803e3d6000fd5b505050506040513d601f19601f820116820180604052508101906103f29190611506565b505050565b336000908152600b60205260408120548190156102df57336000908152600b602052604090206001015461042b9043611806565b92915050565b336000908152600b602052604081205461045d5760405162461bcd60e51b815260040161031090611601565b6000610467610250565b90506000806104746103f7565b90508015610529576007546006548210156104a65760065460075461049990846117e7565b6104a391906117c7565b90505b600754600a54336000908152600b602052604090205410156104ef57600a54600754336000908152600b60205260409020546104e291906117e7565b6104ec91906117c7565b90505b6007546000906104ff83856117e7565b61050991906117c7565b60075490915061051987836117e7565b61052391906117c7565b94505050505b5091505090565b60648110156105515760405162461bcd60e51b815260040161031090611638565b610559610ab5565b6017546040516323b872dd60e01b81526001600160a01b03909116906323b872dd9061058d90339030908690600401611571565b602060405180830381600087803b1580156105a757600080fd5b505af11580156105bb573d6000803e3d6000fd5b505050506040513d601f19601f820116820180604052508101906105df9190611506565b5060006064600254836105f291906117e7565b6105fc91906117c7565b9050600061060a8284611806565b336000908152600b602052604081208054929350839290919061062e9084906117af565b9091555050336000908152600b6020526040812043600190910155600a805483929061065b9084906117af565b925050819055506000601b8054806020026020016040519081016040528092919081815260200182805480156106ba57602002820191906000526020600020905b81546001600160a01b0316815260019091019060200180831161069c575b505060175460115460405163095ea7b360e01b81529596506001600160a01b039182169563095ea7b395506106f89450911691508790600401611595565b602060405180830381600087803b15801561071257600080fd5b505af1158015610726573d6000803e3d6000fd5b505050506040513d601f19601f8201168201806040525081019061074a9190611506565b506018546001546001600160a01b03909116906338ed17399085906000908590309061077690426117af565b6040518663ffffffff1660e01b815260040161079695949392919061173f565b600060405180830381600087803b1580156107b057600080fd5b505af11580156107c4573d6000803e3d6000fd5b505050506040513d6000823e601f3d908101601f191682016040526107ec919081019061144c565b506015546040516370a0823160e01b81526000916001600160a01b0316906370a082319061081e90309060040161155d565b60206040518083038186803b15801561083657600080fd5b505afa15801561084a573d6000803e3d6000fd5b505050506040513d601f19601f8201168201806040525081019061086e9190611545565b905080156109625760155460135460405163095ea7b360e01b81526001600160a01b039283169263095ea7b3926108ac929116908590600401611595565b602060405180830381600087803b1580156108c657600080fd5b505af11580156108da573d6000803e3d6000fd5b505050506040513d601f19601f820116820180604052508101906108fe9190611506565b50601a5460405163534a7e1d60e11b81526001600160a01b039091169063a694fc3a9061092f908490600401611736565b600060405180830381600087803b15801561094957600080fd5b505af115801561095d573d6000803e3d6000fd5b505050505b5050505050565b336000908152600b602090815260409182902082518084019093528054835260010154910181905290565b336000908152600b602090815260409182902082518084019093528054808452600190910154929091019190915290565b60055490565b60065490565b336000908152600b6020526040902054806109fe5760405162461bcd60e51b81526004016103109061167a565b336000818152600b602052604080822091909155601754905163a9059cbb60e01b81526001600160a01b039091169163a9059cbb91610a4291908590600401611595565b602060405180830381600087803b158015610a5c57600080fd5b505af1158015610a70573d6000803e3d6000fd5b505050506040513d601f19601f82011682018060405250810190610a949190611506565b5080600a6000828254610aa79190611806565b909155505050565b600a5490565b600060095443610ac59190611806565b905060085481111561024d576000601d805480602002602001604051908101604052809291908181526020018280548015610b2957602002820191906000526020600020905b81546001600160a01b03168152600190910190602001808311610b0b575b505050505090506000601e805480602002602001604051908101604052809291908181526020018280548015610b8857602002820191906000526020600020905b81546001600160a01b03168152600190910190602001808311610b6a575b50505050509050601a60009054906101000a90046001600160a01b03166001600160a01b031663b88a802f6040518163ffffffff1660e01b8152600401600060405180830381600087803b158015610bdf57600080fd5b505af1158015610bf3573d6000803e3d6000fd5b50506016546040516370a0823160e01b8152600093506001600160a01b0390911691506370a0823190610c2a90309060040161155d565b60206040518083038186803b158015610c4257600080fd5b505afa158015610c56573d6000803e3d6000fd5b505050506040513d601f19601f82011682018060405250810190610c7a9190611545565b90506000606460035483610c8e91906117e7565b610c9891906117c7565b90506000606460045484610cac91906117e7565b610cb691906117c7565b90508115610cc757610cc782611128565b8015610f685760165460115460405163095ea7b360e01b81526001600160a01b039283169263095ea7b392610d03929116908590600401611595565b602060405180830381600087803b158015610d1d57600080fd5b505af1158015610d31573d6000803e3d6000fd5b505050506040513d601f19601f82011682018060405250810190610d559190611506565b506018546001546001600160a01b03909116906338ed173990839060009088903090610d8190426117af565b6040518663ffffffff1660e01b8152600401610da195949392919061173f565b600060405180830381600087803b158015610dbb57600080fd5b505af1158015610dcf573d6000803e3d6000fd5b505050506040513d6000823e601f3d908101601f19168201604052610df7919081019061144c565b506015546040516370a0823160e01b81526000916001600160a01b0316906370a0823190610e2990309060040161155d565b60206040518083038186803b158015610e4157600080fd5b505afa158015610e55573d6000803e3d6000fd5b505050506040513d601f19601f82011682018060405250810190610e799190611545565b60155460135460405163095ea7b360e01b81529293506001600160a01b039182169263095ea7b392610eb19216908590600401611595565b602060405180830381600087803b158015610ecb57600080fd5b505af1158015610edf573d6000803e3d6000fd5b505050506040513d601f19601f82011682018060405250810190610f039190611506565b50601a5460405163534a7e1d60e11b81526001600160a01b039091169063a694fc3a90610f34908490600401611736565b600060405180830381600087803b158015610f4e57600080fd5b505af1158015610f62573d6000803e3d6000fd5b50505050505b6016546040516370a0823160e01b81526001600160a01b03909116906370a0823190610f9890309060040161155d565b60206040518083038186803b158015610fb057600080fd5b505afa158015610fc4573d6000803e3d6000fd5b505050506040513d601f19601f82011682018060405250810190610fe89190611545565b9250821561111c5760165460115460405163095ea7b360e01b81526001600160a01b039283169263095ea7b392611026929116908790600401611595565b602060405180830381600087803b15801561104057600080fd5b505af1158015611054573d6000803e3d6000fd5b505050506040513d601f19601f820116820180604052508101906110789190611506565b506018546001546001600160a01b03909116906338ed1739908590600090899030906110a490426117af565b6040518663ffffffff1660e01b81526004016110c495949392919061173f565b600060405180830381600087803b1580156110de57600080fd5b505af11580156110f2573d6000803e3d6000fd5b505050506040513d6000823e601f3d908101601f1916820160405261111a919081019061144c565b505b50504360095550505050565b600081116111485760405162461bcd60e51b8152600401610310906116bc565b6000601c8054806020026020016040519081016040528092919081815260200182805480156111a057602002820191906000526020600020905b81546001600160a01b03168152600190910190602001808311611182575b505060165460115460405163095ea7b360e01b81529596506001600160a01b039182169563095ea7b395506111de9450911691508690600401611595565b602060405180830381600087803b1580156111f857600080fd5b505af115801561120c573d6000803e3d6000fd5b505050506040513d601f19601f820116820180604052508101906112309190611506565b506018546001546001600160a01b03909116906338ed17399084906000908590309061125c90426117af565b6040518663ffffffff1660e01b815260040161127c95949392919061173f565b600060405180830381600087803b15801561129657600080fd5b505af11580156112aa573d6000803e3d6000fd5b505050506040513d6000823e601f3d908101601f191682016040526112d2919081019061144c565b506014546040516370a0823160e01b81526000916001600160a01b0316906370a082319061130490309060040161155d565b60206040518083038186803b15801561131c57600080fd5b505afa158015611330573d6000803e3d6000fd5b505050506040513d601f19601f820116820180604052508101906113549190611545565b905080156103f25760145460125460405163095ea7b360e01b81526001600160a01b039283169263095ea7b392611392929116908590600401611595565b602060405180830381600087803b1580156113ac57600080fd5b505af11580156113c0573d6000803e3d6000fd5b505050506040513d601f19601f820116820180604052508101906113e49190611506565b5060195460405163f14faf6f60e01b81526001600160a01b039091169063f14faf6f90611415908490600401611736565b600060405180830381600087803b15801561142f57600080fd5b505af1158015611443573d6000803e3d6000fd5b50505050505050565b6000602080838503121561145e578182fd5b825167ffffffffffffffff80821115611475578384fd5b818501915085601f830112611488578384fd5b81518181111561149a5761149a61186e565b838102604051858282010181811085821117156114b9576114b961186e565b604052828152858101935084860182860187018a10156114d7578788fd5b8795505b838610156114f95780518552600195909501949386019386016114db565b5098975050505050505050565b600060208284031215611517578081fd5b81518015158114611526578182fd5b9392505050565b60006020828403121561153e578081fd5b5035919050565b600060208284031215611556578081fd5b5051919050565b6001600160a01b0391909116815260200190565b6001600160a01b039384168152919092166020820152604081019190915260600190565b6001600160a01b03929092168252602082015260400190565b6000602080835283518082850152825b818110156115da578581018301518582016040015282016115be565b818111156115eb5783604083870101525b50601f01601f1916929092016040019392505050565b6020808252601b908201527f47696e6b6f3a207374616b696e67206465706f73697420697320300000000000604082015260600190565b60208082526022908201527f47696e6b6f3a206d696e696d756d206465706f73697420616d6f756e743a2031604082015261030360f41b606082015260800190565b60208082526022908201527f47696e6b6f3a20776974686472617720616d6f756e742063616e6e6f74206265604082015261020360f41b606082015260800190565b6020808252601d908201527f47696e6b6f3a20456d7020616d6f756e742063616e6e6f742062652030000000604082015260600190565b60208082526023908201527f47696e6b6f3a206861727665737420636f6f6c646f776e20696e2070726f677260408201526265737360e81b606082015260800190565b90815260200190565b600060a082018783526020878185015260a0604085015281875180845260c0860191508289019350845b8181101561178e5784516001600160a01b031683529383019391830191600101611769565b50506001600160a01b03969096166060850152505050608001529392505050565b600082198211156117c2576117c2611858565b500190565b6000826117e257634e487b7160e01b81526012600452602481fd5b500490565b600081600019048311821515161561180157611801611858565b500290565b60008282101561181857611818611858565b500390565b60028104600182168061183157607f821691505b6020821081141561185257634e487b7160e01b600052602260045260246000fd5b50919050565b634e487b7160e01b600052601160045260246000fd5b634e487b7160e01b600052604160045260246000fdfea2646970667358221220c70478e06767f968c96d7ee90fea1bf73f250acced2959d5e476c85c646a7a6864736f6c63430008000033",
  "immutableReferences": {},
  "source": "//SPDX-License-Identifier: GPL-3.0+\n\npragma solidity 0.8.0;\n\ncontract GoToken\n{\n    function approve(address, uint256) external returns (bool) {}\n    function balanceOf(address) external view returns (uint256) {}\n}\n\ncontract EshareToken\n{\n    function approve(address, uint256) external returns (bool) {}\n    function balanceOf(address) external view returns (uint256) {}\n}\n\ncontract EmpToken\n{\n    function approve(address, uint256) external returns (bool) {}\n    function balanceOf(address) external view returns (uint256) {}\n}\n\ncontract BusdToken\n{\n    function approve(address, uint256) external returns (bool) {}\n    function balanceOf(address) external view returns (uint256) {}\n    function transfer(address, uint256) external returns (bool) {}\n    function transferFrom(address, address, uint256) external returns (bool) {}\n}\n\ncontract PancakeSwapRouter\n{\n    function swapExactTokensForTokens(\n                 uint,\n                 uint,\n                 address[] calldata,\n                 address,\n                 uint\n             ) external virtual returns (uint[] memory) {}\n}\n\ncontract GoFarm\n{\n    function donate(uint256) external {}\n}\n\ncontract Boardroom\n{\n    function stake(uint256) public {}\n \tfunction claimReward() public {}\n}\n\ncontract Ginko\n{\n    struct UserData \n    { \n        uint256 stakingDeposit;\n        uint256 stakingBlock;\n    }\n    \n    string  private _name = \"\\x47\\x69\\x6e\\x6b\\xc5\\x8d\";\n    uint256 private _swapWaitingSeconds = 3600;\n    uint256 private _depositFee = 10; //Deposit fee: 10%\n    uint256 private _performanceFee = 1; //Performance fee: 1%\n    uint256 private _autoCompoundFee = 33; //Auto-compound fee: 33%\n    uint256 private _harvestCooldownBlocks = 86400;\n    uint256 private _stakingBlockRange = 2592000;\n    uint256 private _decimalFixMultiplier = 1000000000000000000;\n    uint256 private _updateCooldownBlocks = 64800;\n\n    uint256 private _lastUpdate;\n    uint256 private _totalStakingDeposits;\n    \n    mapping(address => UserData) private _userData;\n    \n    address private _goTokenAddress = 0x827a19692B8BcEa675a8Bb5791048b2E2E616F16;\n    address private _eshareTokenAddress = 0x4cdF39285D7Ca8eB3f090fDA0C069ba5F4145B37; //TSHARE\n    address private _empTokenAddress = 0x6c021Ae822BEa943b2E66552bDe1D2696a53fbB7; //TOMB\n    address private _busdTokenAddress = 0x8D11eC38a3EB5E956B052f67Da8Bdc9bef8Abf3E; //DAI\n    address private _bnbTokenAddress = 0x21be370D5312f44cB42ce377BC9b8a0cEF1A4C83; //FTM\n    address private _pancakeSwapRouterAddress = 0xF491e7B69E4244ad4002BC14e878a34207E38c29; //SpookySwap\n    address private _goFarmAddress = 0xc99a8C938efFE3725952Ba083F624C364ed717FC;\n    address private _boardroomAddress = 0x8764DE60236C5843D9faEB1B638fbCE962773B67;\n        \n    GoToken           private _goToken;\n    EshareToken       private _eshareToken;\n    EmpToken          private _empToken;\n    BusdToken         private _busdToken;\n    PancakeSwapRouter private _pancakeSwapRouter;\n    GoFarm            private _goFarm;\n    Boardroom         private _boardroom;\n    \n    address[] private _busdEsharePair;\n    address[] private _empGoPair;\n    address[] private _empBusdPair;\n    address[] private _empEsharePair;    \n    \n    constructor()\n    {\n        //Initialize contracts\n        _goToken           = GoToken(_goTokenAddress);\n        _eshareToken       = EshareToken(_eshareTokenAddress);\n        _empToken          = EmpToken(_empTokenAddress);\n        _busdToken         = BusdToken(_busdTokenAddress);\n        _pancakeSwapRouter = PancakeSwapRouter(_pancakeSwapRouterAddress);\n        _goFarm            = GoFarm(_goFarmAddress);\n        _boardroom         = Boardroom(_boardroomAddress);\n        \n        //Initialize trading pairs\n        _busdEsharePair = [_busdTokenAddress, _bnbTokenAddress, _eshareTokenAddress];\n        _empGoPair      = [_empTokenAddress,  _bnbTokenAddress, _goTokenAddress];\n        _empBusdPair    = [_empTokenAddress,  _bnbTokenAddress, _busdTokenAddress];\n        _empEsharePair  = [_empTokenAddress,  _bnbTokenAddress, _eshareTokenAddress];        \n    }\n    \n    function getName() external view returns (string memory)\n    {\n        return _name;\n    }\n    \n    function getRewardsFund() public view returns (uint256)\n    {\n        return _busdToken.balanceOf(address(this)) - _totalStakingDeposits;\n    }\n    \n    function getTotalStakingDeposits() external view returns (uint256)\n    {\n        return _totalStakingDeposits;\n    }\n    \n    function getDepositFee() external view returns (uint256)\n    {\n        return _depositFee;\n    }\n    \n    function getHarvestCooldownBlocks() external view returns (uint256)\n    {\n        return _harvestCooldownBlocks;\n    }\n    \n    function getStakingBlockRange() external view returns (uint256)\n    {\n        return _stakingBlockRange;\n    } \n    \n    function buyGoToken(uint256 empAmount) private\n    {\n        require(empAmount > 0, \"Ginko: Emp amount cannot be 0\");\n    \n        address[] memory empGoPairMemory = _empGoPair;\n        \n        //Swap Emp for G\n        _empToken.approve(_pancakeSwapRouterAddress, empAmount);\n        _pancakeSwapRouter.swapExactTokensForTokens(empAmount, 0, empGoPairMemory, address(this), block.timestamp + _swapWaitingSeconds);\n        \n        //Donate to G farm\n        uint256 goAmount = _goToken.balanceOf(address(this));\n        \n        if (goAmount > 0)\n        {\n            _goToken.approve(_goFarmAddress, goAmount);\n            _goFarm.donate(goAmount);\n        }\n    }\n    \n    function updateRewardsFund() private\n    {\n        uint256 elapsedBlocks = block.number - _lastUpdate;\n    \n        if (elapsedBlocks > _updateCooldownBlocks)\n        {\n            address[] memory empBusdPairMemory = _empBusdPair;\n\t\t\taddress[] memory empEsharePairMemory = _empEsharePair;            \n                \n            //Harvest pending Emp\n            _boardroom.claimReward();\n            \n            uint256 empAmount = _empToken.balanceOf(address(this));\n            \n            uint256 performanceFeeAmount = empAmount * _performanceFee / 100;\n            uint256 autoCompoundFeeAmount = empAmount * _autoCompoundFee / 100;\n            \n            //Buy G and donate it to G farm\n            if (performanceFeeAmount > 0)\n                buyGoToken(performanceFeeAmount);\n                \n            //Auto-compound\n            if (autoCompoundFeeAmount > 0)\n            {\n            \t//Swap Emp for Eshare\n                _empToken.approve(_pancakeSwapRouterAddress, autoCompoundFeeAmount);\n                _pancakeSwapRouter.swapExactTokensForTokens(autoCompoundFeeAmount, 0, empEsharePairMemory, address(this), block.timestamp + _swapWaitingSeconds);\n            \n               \tuint256 eshareAmount = _eshareToken.balanceOf(address(this));\n                \n                _eshareToken.approve(_boardroomAddress, eshareAmount);\n                _boardroom.stake(eshareAmount);\n            }\n            \n            //Swap Emp for BUSD\n            empAmount = _empToken.balanceOf(address(this));\n            \n            if (empAmount > 0)\n            {\n                _empToken.approve(_pancakeSwapRouterAddress, empAmount);\n                _pancakeSwapRouter.swapExactTokensForTokens(empAmount, 0, empBusdPairMemory, address(this), block.timestamp + _swapWaitingSeconds);\n            }\n            \n            _lastUpdate = block.number;\n        }\n    }\n    \n    function deposit(uint256 amount) external \n    {\n        require(amount >= 100, \"Ginko: minimum deposit amount: 100\");\n        \n        //Update rewards fund\n        updateRewardsFund();\n        \n        _busdToken.transferFrom(msg.sender, address(this), amount);\n        \n        uint256 fee = amount * _depositFee / 100;\n        uint256 netAmount = amount - fee;\n        \n        //Update user data\n        _userData[msg.sender].stakingDeposit += netAmount;\n        _userData[msg.sender].stakingBlock = block.number;\n        \n        _totalStakingDeposits += netAmount;\n        \n        //Swap deposit fee for Eshare\n        address[] memory busdEsharePairMemory = _busdEsharePair;\n        \n        _busdToken.approve(_pancakeSwapRouterAddress, fee);\n        _pancakeSwapRouter.swapExactTokensForTokens(fee, 0, busdEsharePairMemory, address(this), block.timestamp + _swapWaitingSeconds);\n        \n        //Deposit Eshare on EMP Money Boardroom\n        uint256 eshareAmount = _eshareToken.balanceOf(address(this));\n            \n        if (eshareAmount > 0)\n        {\n            _eshareToken.approve(_boardroomAddress, eshareAmount);\n            _boardroom.stake(eshareAmount);\n        }\n    }\n\n    function withdraw() external\n    {\n        uint256 blocksStaking = computeBlocksStaking();\n\n        if (blocksStaking > _harvestCooldownBlocks)\n            harvest();\n        \n        emergencyWithdraw();\n    }\n    \n    function emergencyWithdraw() public\n    {\n        uint256 stakingDeposit = _userData[msg.sender].stakingDeposit;\n        \n        require(stakingDeposit > 0, \"Ginko: withdraw amount cannot be 0\");\n        \n        _userData[msg.sender].stakingDeposit = 0;\n \n        _busdToken.transfer(msg.sender, stakingDeposit);\n        \n        _totalStakingDeposits -= stakingDeposit;\n    }\n\n    function computeUserReward() public view returns (uint256)\n    {\n        require(_userData[msg.sender].stakingDeposit > 0, \"Ginko: staking deposit is 0\");\n    \n        uint256 rewardsFund = getRewardsFund();\n        \n        uint256 userReward = 0;\n    \n        uint256 blocksStaking = computeBlocksStaking();\n        \n        if (blocksStaking > 0)\n\t    {\n\t        uint256 userBlockRatio = _decimalFixMultiplier;\n\t    \n\t        if (blocksStaking < _stakingBlockRange)\n\t            userBlockRatio = blocksStaking * _decimalFixMultiplier / _stakingBlockRange; \n\t\t    \n\t\t    uint256 userDepositRatio = _decimalFixMultiplier;\n\t\t    \n\t\t    if (_userData[msg.sender].stakingDeposit < _totalStakingDeposits)\n\t\t        userDepositRatio = _userData[msg.sender].stakingDeposit * _decimalFixMultiplier / _totalStakingDeposits;\n\t\t    \n\t\t    uint256 totalRatio = userBlockRatio * userDepositRatio / _decimalFixMultiplier;\n\t\t    \n\t\t    userReward = totalRatio * rewardsFund / _decimalFixMultiplier;\n\t\t}\n\t\t\n\t\treturn userReward;\n    }\n\n    function harvest() public \n    {\n        require(_userData[msg.sender].stakingDeposit > 0, \"Ginko: staking deposit is 0\");\n\n        uint256 blocksStaking = computeBlocksStaking();\n\n        require(blocksStaking > _harvestCooldownBlocks, \"Ginko: harvest cooldown in progress\");\n    \n        updateRewardsFund();\n        \n        uint256 userReward = computeUserReward();\n        \n        _userData[msg.sender].stakingBlock = block.number;\n\n        _busdToken.transfer(msg.sender, userReward);\n    }\n    \n    function getStakingDeposit() external view returns (uint256)\n    {\n        UserData memory userData = _userData[msg.sender];\n    \n        return (userData.stakingDeposit);\n    }\n    \n    function getStakingBlock() external view returns (uint256)\n    {\n        UserData memory userData = _userData[msg.sender];\n    \n        return (userData.stakingBlock);\n    }\n    \n    function computeBlocksStaking() public view returns (uint256)\n    {\n        uint256 blocksStaking = 0;\n        \n        if (_userData[msg.sender].stakingDeposit > 0)\n            blocksStaking = block.number - _userData[msg.sender].stakingBlock;\n        \n        return blocksStaking;\n    }\n}\n\n",
  "sourcePath": "/home/dummy/shared/GinkoFantom/contracts/Ginko.sol",
  "compiler": {
    "name": "solc",
    "version": "0.8.0+commit.c7dfd78e.Emscripten.clang"
  },
  "schemaVersion": "3.4.4",
  "updatedAt": "2022-02-21T17:48:51.732Z",
  "networkType": "ethereum",
  "devdoc": {
    "kind": "dev",
    "methods": {},
    "version": 1
  },
  "userdoc": {
    "kind": "user",
    "methods": {},
    "version": 1
  }
}